{
  "contractName": "AddnTXN",
  "abi": [
    {
      "constant": true,
      "inputs": [],
      "name": "minter",
      "outputs": [
        {
          "name": "",
          "type": "address"
        }
      ],
      "payable": false,
      "stateMutability": "view",
      "type": "function"
    },
    {
      "constant": true,
      "inputs": [
        {
          "name": "",
          "type": "address"
        }
      ],
      "name": "balances",
      "outputs": [
        {
          "name": "",
          "type": "uint256"
        }
      ],
      "payable": false,
      "stateMutability": "view",
      "type": "function"
    },
    {
      "inputs": [],
      "payable": false,
      "stateMutability": "nonpayable",
      "type": "constructor"
    },
    {
      "anonymous": false,
      "inputs": [
        {
          "indexed": false,
          "name": "from",
          "type": "address"
        },
        {
          "indexed": false,
          "name": "to",
          "type": "address"
        },
        {
          "indexed": false,
          "name": "amount",
          "type": "uint256"
        }
      ],
      "name": "Sent",
      "type": "event"
    },
    {
      "constant": false,
      "inputs": [
        {
          "name": "receiver",
          "type": "address"
        },
        {
          "name": "amount",
          "type": "uint256"
        }
      ],
      "name": "mint",
      "outputs": [],
      "payable": false,
      "stateMutability": "nonpayable",
      "type": "function"
    },
    {
      "constant": false,
      "inputs": [
        {
          "name": "receiver",
          "type": "address"
        },
        {
          "name": "amount",
          "type": "uint256"
        }
      ],
      "name": "transfer",
      "outputs": [],
      "payable": false,
      "stateMutability": "nonpayable",
      "type": "function"
    }
  ],
  "bytecode": "0x608060405234801561001057600080fd5b5060008054600160a060020a03191633179055610263806100326000396000f3fe6080604052600436106100615763ffffffff7c010000000000000000000000000000000000000000000000000000000060003504166307546172811461006657806327e235e31461009757806340c10f19146100dc578063a9059cbb14610117575b600080fd5b34801561007257600080fd5b5061007b610150565b60408051600160a060020a039092168252519081900360200190f35b3480156100a357600080fd5b506100ca600480360360208110156100ba57600080fd5b5035600160a060020a031661015f565b60408051918252519081900360200190f35b3480156100e857600080fd5b50610115600480360360408110156100ff57600080fd5b50600160a060020a038135169060200135610171565b005b34801561012357600080fd5b506101156004803603604081101561013a57600080fd5b50600160a060020a0381351690602001356101aa565b600054600160a060020a031681565b60016020526000908152604090205481565b600054600160a060020a0316331461018857600080fd5b600160a060020a03909116600090815260016020526040902080549091019055565b336000908152600160205260409020548111156101c657600080fd5b33600081815260016020908152604080832080548690039055600160a060020a03861680845292819020805486019055805193845290830191909152818101839052517f3990db2d31862302a685e8086b5755072a6e2b5b780af1ee81ece35ee3cd33459181900360600190a1505056fea165627a7a7230582098cd74a03077c1f49f9cf31089a4290627242ea832b71ce9ce823c3e0630022f0029",
  "source": "pragma solidity >=0.4.17;\ncontract AddnTXN {\n\n    address public minter;\n    mapping (address => uint) public balances;\n\n    event Sent(address from, address to, uint amount);\n\n    constructor() public {\n        minter = msg.sender;\n    }\n\n    function mint(address receiver, uint amount) public {\n        if (msg.sender != minter)\n          revert();\n        balances[receiver] += amount;\n    }\n\n    function transfer(address receiver, uint amount) public {\n        if (balances[msg.sender] < amount)\n          revert();\n        balances[msg.sender] -= amount;\n        balances[receiver] += amount;\n        emit Sent(msg.sender, receiver, amount);\n    }\n}\n",
  "sourcePath": "/Users/ayushverma13yahoo.co.in/Desktop/SampleProjects /Blockchain Rohini Rao/Courera Ballot/tutorial/contracts/AddnTXN.sol",
  "compiler": {
    "name": "solc",
    "version": "0.5.0+commit.1d4f565a.Emscripten.clang"
  },
  "schemaVersion": "3.0.1",
  "updatedAt": "2020-10-12T12:21:51.949Z",
  "devdoc": {
    "methods": {}
  },
  "userdoc": {
    "methods": {}
  }
}