{
  "contractName": "Ballot",
  "abi": [
    {
      "constant": true,
      "inputs": [
        {
          "name": "",
          "type": "uint256"
        }
      ],
      "name": "proposals",
      "outputs": [
        {
          "name": "",
          "type": "uint256"
        }
      ],
      "payable": false,
      "stateMutability": "view",
      "type": "function",
      "signature": "0x013cf08b"
    },
    {
      "constant": true,
      "inputs": [],
      "name": "chairperson",
      "outputs": [
        {
          "name": "",
          "type": "address"
        }
      ],
      "payable": false,
      "stateMutability": "view",
      "type": "function",
      "signature": "0x2e4176cf"
    },
    {
      "constant": true,
      "inputs": [],
      "name": "numberOfProposals",
      "outputs": [
        {
          "name": "",
          "type": "uint256"
        }
      ],
      "payable": false,
      "stateMutability": "view",
      "type": "function",
      "signature": "0x8d7af473"
    },
    {
      "constant": true,
      "inputs": [
        {
          "name": "",
          "type": "address"
        }
      ],
      "name": "voters",
      "outputs": [
        {
          "name": "weight",
          "type": "uint256"
        },
        {
          "name": "voted",
          "type": "bool"
        },
        {
          "name": "vote",
          "type": "uint8"
        }
      ],
      "payable": false,
      "stateMutability": "view",
      "type": "function",
      "signature": "0xa3ec138d"
    },
    {
      "inputs": [],
      "payable": false,
      "stateMutability": "nonpayable",
      "type": "constructor",
      "signature": "constructor"
    },
    {
      "constant": false,
      "inputs": [
        {
          "name": "number",
          "type": "uint256"
        }
      ],
      "name": "updateProposals",
      "outputs": [],
      "payable": false,
      "stateMutability": "nonpayable",
      "type": "function",
      "signature": "0xea5dff53"
    },
    {
      "constant": false,
      "inputs": [
        {
          "name": "toVoter",
          "type": "address"
        }
      ],
      "name": "register",
      "outputs": [],
      "payable": false,
      "stateMutability": "nonpayable",
      "type": "function",
      "signature": "0x4420e486"
    },
    {
      "constant": false,
      "inputs": [
        {
          "name": "toProposal",
          "type": "uint8"
        }
      ],
      "name": "vote",
      "outputs": [],
      "payable": false,
      "stateMutability": "nonpayable",
      "type": "function",
      "signature": "0xb3f98adc"
    },
    {
      "constant": true,
      "inputs": [],
      "name": "winningProposal",
      "outputs": [
        {
          "name": "_winningProposal",
          "type": "uint8"
        }
      ],
      "payable": false,
      "stateMutability": "view",
      "type": "function",
      "signature": "0x609ff1bd"
    },
    {
      "constant": true,
      "inputs": [],
      "name": "getCount",
      "outputs": [
        {
          "name": "",
          "type": "uint256[]"
        }
      ],
      "payable": false,
      "stateMutability": "view",
      "type": "function",
      "signature": "0xa87d942c"
    }
  ],
  "bytecode": "0x608060405234801561001057600080fd5b5060008054600160a060020a0319163317808255600160a060020a03168152600160205260408120600290819055556105148061004e6000396000f3fe6080604052600436106100985763ffffffff7c0100000000000000000000000000000000000000000000000000000000600035041663013cf08b811461009d5780632e4176cf146100d95780634420e4861461010a578063609ff1bd1461013f5780638d7af4731461016a578063a3ec138d1461017f578063a87d942c146101d3578063b3f98adc14610238578063ea5dff5314610265575b600080fd5b3480156100a957600080fd5b506100c7600480360360208110156100c057600080fd5b503561028f565b60408051918252519081900360200190f35b3480156100e557600080fd5b506100ee6102ae565b60408051600160a060020a039092168252519081900360200190f35b34801561011657600080fd5b5061013d6004803603602081101561012d57600080fd5b5035600160a060020a03166102bd565b005b34801561014b57600080fd5b5061015461031f565b6040805160ff9092168252519081900360200190f35b34801561017657600080fd5b506100c7610384565b34801561018b57600080fd5b506101b2600480360360208110156101a257600080fd5b5035600160a060020a031661038a565b60408051938452911515602084015260ff1682820152519081900360600190f35b3480156101df57600080fd5b506101e86103af565b60408051602080825283518183015283519192839290830191858101910280838360005b8381101561022457818101518382015260200161020c565b505050509050019250505060405180910390f35b34801561024457600080fd5b5061013d6004803603602081101561025b57600080fd5b503560ff16610407565b34801561027157600080fd5b5061013d6004803603602081101561028857600080fd5b503561048f565b600380548290811061029d57fe5b600091825260209091200154905081565b600054600160a060020a031681565b600054600160a060020a031633146102d457600080fd5b600160a060020a038116600090815260016020526040902054156102f757600080fd5b600160a060020a0316600090815260016020819052604090912081815501805460ff19169055565b600080805b6002548160ff16101561037f578160038260ff1681548110151561034457fe5b90600052602060002001541115610377576003805460ff831690811061036657fe5b906000526020600020015491508092505b600101610324565b505090565b60025481565b6001602081905260009182526040909120805491015460ff8082169161010090041683565b606060038054806020026020016040519081016040528092919081815260200182805480156103fd57602002820191906000526020600020905b8154815260200190600101908083116103e9575b5050505050905090565b3360009081526001602081905260409091209081015460ff168061042f575060048260ff1610155b8061043957508054155b1561044357600080fd5b6001818101805460ff191690911761ff00191661010060ff85169081029190911790915581546003805491929091811061047957fe5b6000918252602090912001805490910190555050565b600054600160a060020a031633146104a657600080fd5b5060028054600190810190915560038054918201815560009081527fc2575a0e9e593c00f959f8c92f12db2869c3395a3b0502d05e2516446f71f85b9091015556fea165627a7a72305820f1d169b088e5cc791bc6ba1e03e1b9ec5a6b86cb798de2f288393d2c4e8832af0029",
  "source": "pragma solidity >=0.4.17;\n\ncontract Ballot {\n\n    struct Voter {\n        uint weight;\n        bool voted;\n        uint8 vote;\n        // address delegate;\n    }\n\n    //modifer\n    modifier onlyOwner () {\n      require(msg.sender == chairperson);\n      _;\n    }\n\n    /* struct Proposal {\n        uint voteCount; // could add other data about proposal\n    } */\n    address public chairperson;\n\n    //named array of struct Voter with key as the address of voter\n    mapping(address => Voter) public voters;\n\n    uint public numberOfProposals;\n\n    uint[] public proposals;\n\n    // Create a new ballot with 4 different proposals.\n    constructor() public {\n        chairperson = msg.sender;\n        voters[chairperson].weight = 2;\n        numberOfProposals = 0;\n    }\n\n\n    function updateProposals(uint number) public onlyOwner{\n        numberOfProposals += 1;\n        proposals.push(0);\n        //proposals.pop();\n    }\n\n\n    /// Give $(toVoter) the right to vote on this ballot.\n    /// May only be called by $(chairperson).\n    function register(address toVoter) public onlyOwner{\n        if(voters[toVoter].weight != 0) revert();\n        voters[toVoter].weight = 1;\n        voters[toVoter].voted = false;\n    }\n\n    /// Give a single vote to proposal $(toProposal).\n    function vote(uint8 toProposal) public {\n        Voter storage sender = voters[msg.sender];\n        if (sender.voted || toProposal >= 4 || sender.weight == 0) revert();\n        sender.voted = true;\n        sender.vote = toProposal;\n        proposals[toProposal] += sender.weight;\n    }\n\n    function winningProposal() public view returns (uint8 _winningProposal) {\n        uint256 winningVoteCount = 0;\n        for (uint8 prop = 0; prop < numberOfProposals; prop++)\n            if (proposals[prop] > winningVoteCount) {\n                winningVoteCount = proposals[prop];\n                _winningProposal = prop;\n            }\n    }\n\n    function getCount() public view returns (uint[] memory) {\n        return proposals;\n    }\n}\n",
  "sourcePath": "/Users/ayushverma13yahoo.co.in/Desktop/SampleProjects /Blockchain Rohini Rao/Courera Ballot/tutorial/contracts/Ballot.sol",
  "compiler": {
    "name": "solc",
    "version": "0.5.0+commit.1d4f565a.Emscripten.clang"
  },
  "schemaVersion": "3.0.1",
  "updatedAt": "2020-10-15T06:11:11.615Z",
  "devdoc": {
    "methods": {}
  },
  "userdoc": {
    "methods": {
      "register(address)": {
        "notice": "Give $(toVoter) the right to vote on this ballot. May only be called by $(chairperson)."
      },
      "vote(uint8)": {
        "notice": "Give a single vote to proposal $(toProposal)."
      }
    }
  }
}