{
  "contractName": "catalogue",
  "abi": [
    {
      "constant": true,
      "inputs": [],
      "name": "itemCount",
      "outputs": [
        {
          "name": "",
          "type": "uint256"
        }
      ],
      "payable": false,
      "stateMutability": "view",
      "type": "function",
      "signature": "0x6bfb0d01"
    },
    {
      "constant": true,
      "inputs": [
        {
          "name": "",
          "type": "uint256"
        }
      ],
      "name": "itemsAvail",
      "outputs": [
        {
          "name": "publisher",
          "type": "address"
        },
        {
          "name": "itemName",
          "type": "string"
        },
        {
          "name": "item_desc",
          "type": "string"
        },
        {
          "name": "itemPinCode",
          "type": "string"
        },
        {
          "name": "base64QRandNutrition",
          "type": "string"
        },
        {
          "name": "itemCount",
          "type": "uint256"
        },
        {
          "name": "itemVotes",
          "type": "uint256"
        }
      ],
      "payable": false,
      "stateMutability": "view",
      "type": "function",
      "signature": "0x7f412d1b"
    },
    {
      "inputs": [],
      "payable": false,
      "stateMutability": "nonpayable",
      "type": "constructor",
      "signature": "constructor"
    },
    {
      "constant": false,
      "inputs": [
        {
          "name": "itemName",
          "type": "string"
        },
        {
          "name": "description",
          "type": "string"
        },
        {
          "name": "QR",
          "type": "string"
        },
        {
          "name": "PinCode",
          "type": "string"
        }
      ],
      "name": "additem",
      "outputs": [],
      "payable": false,
      "stateMutability": "nonpayable",
      "type": "function",
      "signature": "0x0180e5b3"
    }
  ],
  "bytecode": "0x6080604052600060015534801561001557600080fd5b506101056040805190810160405280600c81526020017f204d65646963696e6520312000000000000000000000000000000000000000008152506040805190810160405280600d81526020017f6465736372697074696f6e3120000000000000000000000000000000000000008152506040805190810160405280601481526020017f6261736536345152616e644e7574726974696f6e0000000000000000000000008152506040805190810160405280600681526020017f31343130313200000000000000000000000000000000000000000000000000008152506101f9640100000000026401000000009004565b6101f46040805190810160405280600c81526020017f204d65646963696e6520322000000000000000000000000000000000000000008152506040805190810160405280600d81526020017f6465736372697074696f6e3120000000000000000000000000000000000000008152506040805190810160405280601481526020017f6261736536345152616e644e7574726974696f6e0000000000000000000000008152506040805190810160405280600681526020017f35373631303400000000000000000000000000000000000000000000000000008152506101f9640100000000026401000000009004565b610371565b6001805481018082556000908152602081815260408083208054600160a060020a0319163317905583548352909120865161023b9391909101918701906102d6565b506001546000908152602081815260409091208451610262926002909201918601906102d6565b506001546000908152602081815260409091208251610289926003909201918401906102d6565b5060015460009081526020818152604090912083516102b0926004909201918501906102d6565b505060015460008181526020819052604081206005810192909255600690910155505050565b828054600181600116156101000203166002900490600052602060002090601f016020900481019282601f1061031757805160ff1916838001178555610344565b82800160010185558215610344579182015b82811115610344578251825591602001919060010190610329565b50610350929150610354565b5090565b61036e91905b80821115610350576000815560010161035a565b90565b610914806103806000396000f3fe6080604052600436106100565763ffffffff7c01000000000000000000000000000000000000000000000000000000006000350416630180e5b3811461005b5780636bfb0d01146102a55780637f412d1b146102cc575b600080fd5b34801561006757600080fd5b506102a36004803603608081101561007e57600080fd5b81019060208101813564010000000081111561009957600080fd5b8201836020820111156100ab57600080fd5b803590602001918460018302840111640100000000831117156100cd57600080fd5b91908080601f016020809104026020016040519081016040528093929190818152602001838380828437600092019190915250929594936020810193503591505064010000000081111561012057600080fd5b82018360208201111561013257600080fd5b8035906020019184600183028401116401000000008311171561015457600080fd5b91908080601f01602080910402602001604051908101604052809392919081815260200183838082843760009201919091525092959493602081019350359150506401000000008111156101a757600080fd5b8201836020820111156101b957600080fd5b803590602001918460018302840111640100000000831117156101db57600080fd5b91908080601f016020809104026020016040519081016040528093929190818152602001838380828437600092019190915250929594936020810193503591505064010000000081111561022e57600080fd5b82018360208201111561024057600080fd5b8035906020019184600183028401116401000000008311171561026257600080fd5b91908080601f0160208091040260200160405190810160405280939291908181526020018383808284376000920191909152509295506104e1945050505050565b005b3480156102b157600080fd5b506102ba6105cb565b60408051918252519081900360200190f35b3480156102d857600080fd5b506102f6600480360360208110156102ef57600080fd5b50356105d1565b604051808873ffffffffffffffffffffffffffffffffffffffff1673ffffffffffffffffffffffffffffffffffffffff1681526020018060200180602001806020018060200187815260200186815260200185810385528b818151815260200191508051906020019080838360005b8381101561037d578181015183820152602001610365565b50505050905090810190601f1680156103aa5780820380516001836020036101000a031916815260200191505b5085810384528a5181528a516020918201918c019080838360005b838110156103dd5781810151838201526020016103c5565b50505050905090810190601f16801561040a5780820380516001836020036101000a031916815260200191505b5085810383528951815289516020918201918b019080838360005b8381101561043d578181015183820152602001610425565b50505050905090810190601f16801561046a5780820380516001836020036101000a031916815260200191505b5085810382528851815288516020918201918a019080838360005b8381101561049d578181015183820152602001610485565b50505050905090810190601f1680156104ca5780820380516001836020036101000a031916815260200191505b509b50505050505050505050505060405180910390f35b600180548101808255600090815260208181526040808320805473ffffffffffffffffffffffffffffffffffffffff19163317905583548352909120865161053093919091019187019061084d565b5060015460009081526020818152604090912084516105579260029092019186019061084d565b50600154600090815260208181526040909120825161057e9260039092019184019061084d565b5060015460009081526020818152604090912083516105a59260049092019185019061084d565b505060015460008181526020819052604081206005810192909255600690910155505050565b60015481565b600060208181529181526040908190208054600180830180548551600261010094831615949094026000190190911692909204601f810187900487028301870190955284825273ffffffffffffffffffffffffffffffffffffffff90921694929390928301828280156106855780601f1061065a57610100808354040283529160200191610685565b820191906000526020600020905b81548152906001019060200180831161066857829003601f168201915b50505060028085018054604080516020601f60001961010060018716150201909416959095049283018590048502810185019091528181529596959450909250908301828280156107175780601f106106ec57610100808354040283529160200191610717565b820191906000526020600020905b8154815290600101906020018083116106fa57829003601f168201915b5050505060038301805460408051602060026001851615610100026000190190941693909304601f81018490048402820184019092528181529495949350908301828280156107a75780601f1061077c576101008083540402835291602001916107a7565b820191906000526020600020905b81548152906001019060200180831161078a57829003601f168201915b5050505060048301805460408051602060026001851615610100026000190190941693909304601f81018490048402820184019092528181529495949350908301828280156108375780601f1061080c57610100808354040283529160200191610837565b820191906000526020600020905b81548152906001019060200180831161081a57829003601f168201915b5050505050908060050154908060060154905087565b828054600181600116156101000203166002900490600052602060002090601f016020900481019282601f1061088e57805160ff19168380011785556108bb565b828001600101855582156108bb579182015b828111156108bb5782518255916020019190600101906108a0565b506108c79291506108cb565b5090565b6108e591905b808211156108c757600081556001016108d1565b9056fea165627a7a72305820e5ed020c59b4d0aa79816c34e78d2ba5d5c8ad0e3ade8a90564db524baef18df0029",
  "source": "pragma solidity >=0.4.0 ;\n\ncontract catalogue{\n\n    struct item{\n        address publisher;\n        string itemName;\n        string item_desc;\n        string itemPinCode;\n        string base64QRandNutrition;\n        uint itemCount;\n        uint itemVotes;\n    }\n\n\n    mapping(uint => item) public itemsAvail;\n\n    uint public itemCount=0;\n\n    constructor() public{\n        additem(\" Medicine 1 \",\"description1 \",\"base64QRandNutrition\",\"141012\");\n        additem(\" Medicine 2 \",\"description1 \",\"base64QRandNutrition\",\"576104\");\n    }\n\n    function additem(string memory itemName,string memory description,string memory QR ,string memory PinCode ) public {\n    itemCount++;\n    itemsAvail[itemCount].publisher = msg.sender;\n    itemsAvail[itemCount].itemName = itemName;\n    itemsAvail[itemCount].item_desc = description;\n    itemsAvail[itemCount].itemPinCode = PinCode;\n    itemsAvail[itemCount].base64QRandNutrition = QR;\n    itemsAvail[itemCount].itemCount = itemCount;\n    itemsAvail[itemCount].itemVotes = 0;\n\n    }\n\n}\n\n\n// for adding double mapping of class of drugs aswell\n\n//   struct Struct {\n//     uint timestamp;\n//   }\n\n//   // Mapping test\n//   mapping(uint => mapping(uint => uint)) mymap;\n\n//   mapping(address => mapping(uint => Struct[])) someName;\n\n//   function testNestedMappings() {\n//     //@log test nested mappings\n//     mymap[1][2] = 42;\n//     //@log mymap[1][2] = `uint mymap[1][2]`\n//     //@log test struct array:\n//     //@log someName[msg.sender][1].length = `uint someName[msg.sender][1].length`\n//     //@log incrementing length\n//     someName[msg.sender][1].length++;\n//     //@log saving timestamp to last entry\n//     someName[msg.sender][1][someName[msg.sender][1].length - 1].timestamp = block.timestamp;\n//     //@log `uint someName[msg.sender][1][someName[msg.sender][1].length-1].timestamp`\n//   }\n// }",
  "sourcePath": "/Users/ayushverma13yahoo.co.in/Desktop/SampleProjects /Blockchain Rohini Rao/Courera Ballot/tutorial/contracts/catalogue.sol",
  "compiler": {
    "name": "solc",
    "version": "0.5.0+commit.1d4f565a.Emscripten.clang"
  },
  "schemaVersion": "3.0.1",
  "updatedAt": "2020-10-15T06:11:11.616Z",
  "devdoc": {
    "methods": {}
  },
  "userdoc": {
    "methods": {}
  }
}